:100000000C942A000C943C000C943C000C943C0092
:100010000C943C000C943C000C943C000C943C0070
:100020000C943C000C943C000C943C000C943C0060
:100030000C943C000C943C000C943C000C943C0050
:100040000C943C000C943C000C943C000C943C0040
:100050000C943C0011241FBECFE5D8E0DEBFCDBF1D
:1000600020E0A0E6B0E001C01D92A236B207E1F7A1
:100070000E9431020C94A9020C94000040E00E94FE
:10008000610008950F931F93CF93DF931F92CDB715
:10009000DEB78A011982AE014F5F5F4F0E945F0198
:1000A000811105C08981F801808381E004C08981C4
:1000B000F801808380E00F90DF91CF911F910F9125
:1000C0000895442319F04130E9F174C0813099F06A
:1000D00028F08230E9F0833041F16EC02AB381E02C
:1000E00090E002C0880F991F6A95E2F780958223FD
:1000F0008ABB80E0089527B381E090E002C0880FBA
:10010000991F6A95E2F78095822387BB80E0089566
:1001100024B381E090E002C0880F991F6A95E2F74E
:100120008095822384BB80E0089521B381E090E034
:1001300002C0880F991F6A95E2F78095822381BBE0
:1001400080E00895813091F028F08230D9F083303A
:1001500029F134C02AB381E090E002C0880F991FD2
:100160006A95E2F7822B8ABB80E0089527B381E08D
:1001700090E002C0880F991F6A95E2F7822B87BB37
:1001800080E0089524B381E090E002C0880F991FB9
:100190006A95E2F7822B84BB80E0089521B381E069
:1001A00090E002C0880F991F6A95E2F7822B81BB0D
:1001B00080E0089581E0089581E0089581E0089548
:1001C000442319F04130E9F174C0813099F028F0EE
:1001D0008230E9F0833041F16EC02BB381E090E0D2
:1001E00002C0880F991F6A95E2F7809582238BBB26
:1001F00080E0089528B381E090E002C0880F991F45
:100200006A95E2F78095822388BB80E0089525B344
:1002100081E090E002C0880F991F6A95E2F780950F
:10022000822385BB80E0089522B381E090E002C084
:10023000880F991F6A95E2F78095822382BB80E040
:100240000895813091F028F08230D9F0833029F17F
:1002500034C02BB381E090E002C0880F991F6A95EB
:10026000E2F7822B8BBB80E0089528B381E090E019
:1002700002C0880F991F6A95E2F7822B88BB80E045
:10028000089525B381E090E002C0880F991F6A9518
:10029000E2F7822B85BB80E0089522B381E090E0F5
:1002A00002C0880F991F6A95E2F7822B82BB80E01B
:1002B000089581E0089581E0089581E008958130F6
:1002C00099F028F08230E9F0833041F134C089B3ED
:1002D00090E002C0959587956A95E2F7817089BB99
:1002E000FA01808380E0089586B390E002C095957E
:1002F00087956A95E2F7817086BBFA01808380E07A
:10030000089583B390E002C0959587956A95E2F7CA
:10031000817083BBFA01808380E0089580B390E010
:1003200002C0959587956A95E2F7817080BBFA01C6
:10033000808380E0089581E0089541E00E9461009B
:10034000089541E00E94E000089540E00E94E0002E
:10035000089562E082E00E94A10167E082E00E94CD
:10036000A50163E083E00E94A50164E083E00E94B0
:10037000A501089562E082E00E94A10167E082E0A9
:100380000E94A10163E083E00E94A50164E083E094
:100390000E94A501089562E082E00E94A10167E049
:1003A00082E00E94A10163E083E00E94A10164E079
:1003B00083E00E94A501089562E082E00E94A1010D
:1003C00067E082E00E94A10163E083E00E94A10156
:1003D00064E083E00E94A101089562E082E00E944F
:1003E000A50167E082E00E94A10163E083E00E9432
:1003F000A10164E083E00E94A101089562E082E02F
:100400000E94A50167E082E00E94A50163E083E00D
:100410000E94A10164E083E00E94A101089562E0CE
:1004200082E00E94A50167E082E00E94A50163E0EE
:1004300083E00E94A50164E083E00E94A101089589
:1004400062E082E00E94A50167E082E00E94A501CF
:1004500063E083E00E94A50164E083E00E94A501BF
:10046000089564E081E00E943E0062E082E00E9424
:100470009D0167E082E00E949D0163E083E00E94AD
:100480009D0164E083E00E949D0162E082E00E94A1
:10049000A50167E082E00E94A50163E083E00E947D
:1004A000A50164E083E00E94A50141E650E064E01C
:1004B00081E00E944200809161008823B1F38BE4C7
:1004C0009DE10197F1F700C0000041E650E064E0D3
:1004D00081E00E94420080916100882331F3809185
:1004E00060008F5F80936000813019F40E94A90141
:1004F0002BC0823019F40E94BA0126C0833019F44F
:100500000E94CB0121C0843019F40E94DC011CC080
:10051000853019F40E94ED0117C0863019F40E944D
:10052000FE0112C0873019F40E940F020DC08830FE
:1005300059F40E9420021092600006C041E650E08B
:1005400064E081E00E944200809161008111F6CF59
:06055000ACCFF894FFCFD0
:00000001FF
