:100000000C942A000C9417070C9428070C943C00BD
:100010000C943C000C943C000C943C000C943C0070
:100020000C943C000C943C000C943C000C943C0060
:100030000C943C000C943C000C943C000C943C0050
:100040000C943C000C943C000C943C000C943C0040
:100050000C943C0011241FBECFE5D8E0DEBFCDBF1D
:1000600020E0A0E6B0E001C01D92A636B207E1F79D
:100070000E9464010C94C3080C940000442319F0FE
:100080004130E9F174C0813099F028F08230E9F014
:10009000833041F16EC02AB381E090E002C0880F46
:1000A000991F6A95E2F7809582238ABB80E00895C4
:1000B00027B381E090E002C0880F991F6A95E2F7AC
:1000C0008095822387BB80E0089524B381E090E08F
:1000D00002C0880F991F6A95E2F78095822384BB3E
:1000E00080E0089521B381E090E002C0880F991F5D
:1000F0006A95E2F78095822381BB80E00895813084
:1001000091F028F08230D9F0833029F134C02AB33D
:1001100081E090E002C0880F991F6A95E2F7822B78
:100120008ABB80E0089527B381E090E002C0880F89
:10013000991F6A95E2F7822B87BB80E0089524B36C
:1001400081E090E002C0880F991F6A95E2F7822B48
:1001500084BB80E0089521B381E090E002C0880F65
:10016000991F6A95E2F7822B81BB80E0089581E0B8
:10017000089581E0089581E00895442319F0413005
:10018000E9F174C0813099F028F08230E9F08330D1
:1001900041F16EC02BB381E090E002C0880F991F3F
:1001A0006A95E2F7809582238BBB80E0089528B39F
:1001B00081E090E002C0880F991F6A95E2F7809570
:1001C000822388BB80E0089525B381E090E002C0DF
:1001D000880F991F6A95E2F78095822385BB80E09E
:1001E000089522B381E090E002C0880F991F6A95BC
:1001F000E2F78095822382BB80E00895813091F000
:1002000028F08230D9F0833029F134C02BB381E05B
:1002100090E002C0880F991F6A95E2F7822B8BBB92
:1002200080E0089528B381E090E002C0880F991F14
:100230006A95E2F7822B88BB80E0089525B381E0C0
:1002400090E002C0880F991F6A95E2F7822B85BB68
:1002500080E0089522B381E090E002C0880F991FEA
:100260006A95E2F7822B82BB80E0089581E00895D1
:1002700081E0089581E008958FB780688FBF089569
:100280000E943C0185B7816085BF85B7826085BFCC
:100290008BB780648BBF08950E943C0185B7846052
:1002A00085BF85B7886085BF8BB780688BBF089591
:1002B00041E00E943E00089541E00E94BD00089583
:1002C00040E00E94BD00089560E082E00E94580175
:1002D00061E082E00E94580162E082E00E945801E1
:1002E00063E082E00E94580160E082E00E946001C9
:1002F00061E082E00E94600162E082E00E946001B1
:1003000063E082E00E9460010E9439070E94400180
:100310000E944C0180916000883010F010926000C3
:1003200080916100853010F0109261008091610031
:10033000823009F43AC230F4882359F0813009F44C
:100340001EC1E8CF833009F446C3843009F459C490
:10035000E1CF80916000811111C060E082E00E94D5
:10036000600161E082E00E94600162E082E00E9440
:10037000600163E082E00E946001CCCF8130A9F48B
:1003800060E082E00E945C0164E670E080E090E062
:100390000E94600760E082E00E94600164E873E010
:1003A00080E090E00E946007B5CF8230E1F460E029
:1003B0000E945C0161E082E00E945C0164E670E002
:1003C00080E090E00E94600760E082E00E946001AF
:1003D00061E082E00E94600164E873E080E090E008
:1003E0000E94600797CF833029F560E082E00E9489
:1003F0005C0161E082E00E945C0162E082E00E94B8
:100400005C0164E670E080E090E00E94600760E0DC
:1004100082E00E94600161E082E00E94600162E08F
:1004200082E00E94600164E873E080E090E00E9456
:10043000600770CF843069F560E082E00E945C0163
:1004400061E082E00E945C0162E082E00E945C0167
:1004500063E082E00E945C0164E670E080E090E08E
:100460000E94600760E082E00E94600161E082E03B
:100470000E94600162E082E00E94600163E082E02D
:100480000E94600164E873E080E090E00E946007F1
:1004900041CF853049F560E082E00E94600161E073
:1004A00082E00E945C0162E082E00E945C0163E005
:1004B00082E00E945C0164E670E080E090E00E94CF
:1004C000600761E082E00E94600162E082E00E94D9
:1004D000600163E082E00E94600164E873E080E014
:1004E00090E00E94600716CF863029F560E082E038
:1004F0000E94600161E082E00E94600162E082E0AF
:100500000E945C0163E082E00E945C0164E670E0AE
:1005100080E090E00E94600762E082E00E9460015B
:1005200063E082E00E94600164E873E080E090E0B4
:100530000E946007EFCE873009F0ECCE60E082E0E9
:100540000E94600161E082E00E94600162E082E05E
:100550000E94600163E082E00E945C0164E670E05A
:1005600080E090E00E94600763E082E00E9460010A
:1005700064E873E080E090E00E946007CBCE809159
:100580006000811111C060E082E00E94600161E0C2
:1005900082E00E94600162E082E00E94600163E00C
:1005A00082E00E946001B6CE8130A9F460E082E072
:1005B0000E945C0168EC70E080E090E00E946007BF
:1005C00060E082E00E94600160E273E080E090E021
:1005D0000E9460079FCE8230E1F460E00E945C01DF
:1005E00061E082E00E945C0168EC70E080E090E0F5
:1005F0000E94600760E082E00E94600161E082E0AA
:100600000E94600160E273E080E090E00E94600779
:1006100081CE833029F560E082E00E945C0161E0D8
:1006200082E00E945C0162E082E00E945C0168EC72
:1006300070E080E090E00E94600760E082E00E944D
:10064000600161E082E00E94600162E082E00E945D
:10065000600160E273E080E090E00E9460075ACEA3
:10066000843069F560E082E00E945C0161E082E034
:100670000E945C0162E082E00E945C0163E082E033
:100680000E945C0168EC70E080E090E00E946007EE
:1006900060E082E00E94600161E082E00E9460010F
:1006A00062E082E00E94600163E082E00E946001FB
:1006B00060E273E080E090E00E9460072BCE85301E
:1006C00049F560E082E00E94600161E082E00E9402
:1006D0005C0162E082E00E945C0163E082E00E94D3
:1006E0005C0168EC70E080E090E00E94600761E0EF
:1006F00082E00E94600162E082E00E94600163E0AB
:1007000082E00E94600160E273E080E090E00E947D
:10071000600700CE863029F560E082E00E9460012B
:1007200061E082E00E94600162E082E00E945C0180
:1007300063E082E00E945C0168EC70E080E090E0A1
:100740000E94600762E082E00E94600163E082E054
:100750000E94600160E273E080E090E00E94600728
:10076000D9CD873009F0D6CD60E082E00E946001EB
:1007700061E082E00E94600162E082E00E9460012C
:1007800063E082E00E945C0168EC70E080E090E051
:100790000E94600763E082E00E94600160E273E013
:1007A00080E090E00E946007B5CD809160008111EB
:1007B00011C060E082E00E94600161E082E00E947E
:1007C000600162E082E00E94600163E082E00E94DA
:1007D0006001A0CD8130A9F460E082E00E945C015C
:1007E0006CE271E080E090E00E94600760E082E0EF
:1007F0000E9460016CEB72E080E090E00E94600774
:1008000089CD8230E1F460E00E945C0161E082E029
:100810000E945C016CE271E080E090E00E94600761
:1008200060E082E00E94600161E082E00E9460017D
:100830006CEB72E080E090E00E9460076BCD83304B
:1008400029F560E082E00E945C0161E082E00E94A4
:100850005C0162E082E00E945C016CE271E080E099
:1008600090E00E94600760E082E00E94600161E029
:1008700082E00E94600162E082E00E9460016CEB15
:1008800072E080E090E00E94600744CD843069F51A
:1008900060E082E00E945C0161E082E00E945C0115
:1008A00062E082E00E945C0163E082E00E945C0101
:1008B0006CE271E080E090E00E94600760E082E01E
:1008C0000E94600161E082E00E94600162E082E0DB
:1008D0000E94600163E082E00E9460016CEB72E0C4
:1008E00080E090E00E94600715CD853049F560E01A
:1008F00082E00E94600161E082E00E945C0162E0AF
:1009000082E00E945C0163E082E00E945C016CE294
:1009100071E080E090E00E94600761E082E00E9468
:10092000600162E082E00E94600163E082E00E9478
:1009300060016CEB72E080E090E00E946007EACC1E
:10094000863029F560E082E00E94600161E082E08B
:100950000E94600162E082E00E945C0163E082E04C
:100960000E945C016CE271E080E090E00E94600710
:1009700062E082E00E94600163E082E00E94600128
:100980006CEB72E080E090E00E946007C3CC87309F
:1009900009F0C0CC60E082E00E94600161E082E08A
:1009A0000E94600162E082E00E94600163E082E0F8
:1009B0000E945C016CE271E080E090E00E946007C0
:1009C00063E082E00E9460016CEB72E080E090E006
:1009D0000E9460079FCC80916000811111C060E08F
:1009E00082E00E94600161E082E00E94600162E0BA
:1009F00082E00E94600163E082E00E9460018ACC94
:100A00008130A9F460E082E00E945C0164EF71E053
:100A100080E090E00E94600760E082E00E94600158
:100A200064EF71E080E090E00E94600773CC823058
:100A3000E1F460E00E945C0161E082E00E945C0100
:100A400064EF71E080E090E00E94600760E082E087
:100A50000E94600161E082E00E94600164EF71E049
:100A600080E090E00E94600755CC833029F560E07B
:100A700082E00E945C0161E082E00E945C0162E031
:100A800082E00E945C0164EF71E080E090E00E94EF
:100A9000600760E082E00E94600161E082E00E9405
:100AA000600162E082E00E94600164EF71E080E03A
:100AB00090E00E9460072ECC843069F560E082E00F
:100AC0000E945C0161E082E00E945C0162E082E0E1
:100AD0000E945C0163E082E00E945C0164EF71E0CF
:100AE00080E090E00E94600760E082E00E94600188
:100AF00061E082E00E94600162E082E00E946001A9
:100B000063E082E00E94600164EF71E080E090E0C9
:100B10000E946007FFCB853049F560E082E00E94CB
:100B2000600161E082E00E945C0162E082E00E947C
:100B30005C0163E082E00E945C0164EF71E080E0B0
:100B400090E00E94600761E082E00E94600162E044
:100B500082E00E94600163E082E00E94600164EF35
:100B600071E080E090E00E946007D4CB863029F5E8
:100B700060E082E00E94600161E082E00E9460012A
:100B800062E082E00E945C0163E082E00E945C011E
:100B900064EF71E080E090E00E94600762E082E034
:100BA0000E94600163E082E00E94600164EF71E0F6
:100BB00080E090E00E946007ADCB873009F0AACBBF
:100BC00060E082E00E94600161E082E00E946001DA
:100BD00062E082E00E94600163E082E00E945C01CA
:100BE00064EF71E080E090E00E94600763E082E0E3
:100BF0000E94600164EF71E080E090E00E94600775
:100C000089CB80916000811111C060E082E00E9478
:100C1000600161E082E00E94600162E082E00E9487
:100C2000600163E082E00E94600174CB8130A9F42E
:100C300060E082E00E945C0160E273E080E090E0AE
:100C40000E94600760E082E00E94600168EC70E052
:100C500080E090E00E9460075DCB8230E1F460E0CC
:100C60000E945C0161E082E00E945C0160E273E04E
:100C700080E090E00E94600760E082E00E946001F6
:100C800061E082E00E94600168EC70E080E090E04A
:100C90000E9460073FCB833029F560E082E00E942C
:100CA0005C0161E082E00E945C0162E082E00E94FF
:100CB0005C0160E273E080E090E00E94600760E029
:100CC00082E00E94600161E082E00E94600162E0D7
:100CD00082E00E94600168EC70E080E090E00E9499
:100CE000600718CB843069F560E082E00E945C0107
:100CF00061E082E00E945C0162E082E00E945C01AF
:100D000063E082E00E945C0160E273E080E090E0DA
:100D10000E94600760E082E00E94600161E082E082
:100D20000E94600162E082E00E94600163E082E074
:100D30000E94600168EC70E080E090E00E94600733
:100D4000E9CA853049F560E082E00E94600161E017
:100D500082E00E945C0162E082E00E945C0163E04C
:100D600082E00E945C0160E273E080E090E00E941B
:100D7000600761E082E00E94600162E082E00E9420
:100D8000600163E082E00E94600168EC70E080E056
:100D900090E00E946007BECA863029F560E082E0DC
:100DA0000E94600161E082E00E94600162E082E0F6
:100DB0000E945C0163E082E00E945C0160E273E0FB
:100DC00080E090E00E94600762E082E00E946001A3
:100DD00063E082E00E94600168EC70E080E090E0F7
:100DE0000E94600797CA873009F094CA60E082E0E9
:100DF0000E94600161E082E00E94600162E082E0A6
:100E00000E94600163E082E00E945C0160E273E0A6
:100E100080E090E00E94600763E082E00E94600151
:100E200068EC70E080E090E00E94600773CA1F9257
:100E30000F920FB60F9211248F93809161008F5FF4
:100E4000809361008F910F900FBE0F901F901895A7
:100E50001F920F920FB60F9211248F938091600012
:100E60008F5F809360008F910F900FBE0F901F9047
:100E7000189583B78F7783BF83B78F7B83BF83B783
:100E8000877F83BF83B78F7E83BF83B78F7D83BF09
:100E900080E0089583B7816083BF83B78D7F83BF70
:100EA00083B78B7F83BF80E0089583B78E7F83BF36
:100EB00083B78D7F83BF83B78B7F83BF80E0089527
:100EC0000E9435082FE632E143E85EE30E94940772
:100ED0000E94060860936200709363008093640030
:100EE0009093650012BE0E944A0740E050E0BA01AC
:100EF0000AC008B600FEFDCF88B7816088BF4F5F8B
:100F00005F4F6F4F7F4F8091620090916300A0917F
:100F10006400B0916500481759076A077B0748F3DA
:100F20000E94550780E008950E94A8070C94890844
:100F30000E94820858F00E947B0840F029F45F3F2D
:100F400029F00C94720851110C94BD080C94780887
:100F50000E949A0868F39923B1F3552391F3951BE6
:100F6000550BBB27AA2762177307840738F09F5FCA
:100F70005F4F220F331F441FAA1FA9F335D00E2E37
:100F80003AF0E0E832D091505040E695001CCAF7A4
:100F90002BD0FE2F29D0660F771F881FBB1F261767
:100FA00037074807AB07B0E809F0BB0B802DBF013E
:100FB000FF2793585F4F3AF09E3F510578F00C940D
:100FC00072080C94BD085F3FE4F3983ED4F3869515
:100FD00077956795B795F7959F5FC9F7880F911D2E
:100FE0009695879597F90895E1E0660F771F881F1A
:100FF000BB1F621773078407BA0720F0621B730BCD
:10100000840BBA0BEE1F88F7E09508950E94A208A2
:1010100088F09F5798F0B92F9927B751B0F0E1F0B9
:10102000660F771F881F991F1AF0BA95C9F714C069
:10103000B13091F00E94BC08B1E008950C94BC0856
:10104000672F782F8827B85F39F0B93FCCF38695A2
:1010500077956795B395D9F73EF4909580957095FF
:1010600061957F4F8F4F9F4F0895E89409C097FB7C
:101070003EF490958095709561957F4F8F4F9F4F6F
:101080009923A9F0F92F96E9BB279395F6958795B3
:1010900077956795B795F111F8CFFAF4BB0F11F476
:1010A00060FF1BC06F5F7F4F8F4F9F4F16C088231D
:1010B00011F096E911C0772321F09EE8872F762F53
:1010C00005C0662371F096E8862F70E060E02AF094
:1010D0009A95660F771F881FDAF7880F9695879580
:1010E00097F9089597F99F6780E870E060E00895A8
:1010F0009FEF80EC089500240A9416161706180630
:101100000906089500240A9412161306140605060B
:101110000895092E0394000C11F4882352F0BB0F9C
:1011200040F4BF2B11F460FF04C06F5F7F4F8F4FFF
:101130009F4F089557FD9058440F551F59F05F3F3A
:1011400071F04795880F97FB991F61F09F3F79F0E9
:1011500087950895121613061406551FF2CF46956B
:10116000F1DF08C0161617061806991FF1CF8695ED
:101170007105610508940895E894BB2766277727D1
:0A118000CB0197F90895F894FFCF12
:00000001FF
