:100000000C942A000C941D020C943C000C943C00AF
:100010000C943C000C943C000C943C000C943C0070
:100020000C943C000C943C000C943C000C943C0060
:100030000C943C000C943C000C943C000C943C0050
:100040000C943C000C943C000C943C000C943C0040
:100050000C943C0011241FBECFE5D8E0DEBFCDBF1D
:1000600020E0A0E6B0E001C01D92A136B207E1F7A2
:100070000E9455010C942E020C940000442319F0A8
:100080004130E9F174C0813099F028F08230E9F014
:10009000833041F16EC02AB381E090E002C0880F46
:1000A000991F6A95E2F7809582238ABB80E00895C4
:1000B00027B381E090E002C0880F991F6A95E2F7AC
:1000C0008095822387BB80E0089524B381E090E08F
:1000D00002C0880F991F6A95E2F78095822384BB3E
:1000E00080E0089521B381E090E002C0880F991F5D
:1000F0006A95E2F78095822381BB80E00895813084
:1001000091F028F08230D9F0833029F134C02AB33D
:1001100081E090E002C0880F991F6A95E2F7822B78
:100120008ABB80E0089527B381E090E002C0880F89
:10013000991F6A95E2F7822B87BB80E0089524B36C
:1001400081E090E002C0880F991F6A95E2F7822B48
:1001500084BB80E0089521B381E090E002C0880F65
:10016000991F6A95E2F7822B81BB80E0089581E0B8
:10017000089581E0089581E00895442319F0413005
:10018000E9F174C0813099F028F08230E9F08330D1
:1001900041F16EC02BB381E090E002C0880F991F3F
:1001A0006A95E2F7809582238BBB80E0089528B39F
:1001B00081E090E002C0880F991F6A95E2F7809570
:1001C000822388BB80E0089525B381E090E002C0DF
:1001D000880F991F6A95E2F78095822385BB80E09E
:1001E000089522B381E090E002C0880F991F6A95BC
:1001F000E2F78095822382BB80E00895813091F000
:1002000028F08230D9F0833029F134C02BB381E05B
:1002100090E002C0880F991F6A95E2F7822B8BBB92
:1002200080E0089528B381E090E002C0880F991F14
:100230006A95E2F7822B88BB80E0089525B381E0C0
:1002400090E002C0880F991F6A95E2F7822B85BB68
:1002500080E0089522B381E090E002C0880F991FEA
:100260006A95E2F7822B82BB80E0089581E00895D1
:1002700081E0089581E008958FB780688FBF85B7CA
:10028000816085BF85B7826085BF8BB780648BBF77
:10029000089541E00E943E00089541E00E94BD00A3
:1002A000089540E00E94BD00089540E062E083E0D0
:1002B0000E943E0040E062E083E00E94BD0062E0F8
:1002C00082E00E94490167E082E00E94490163E008
:1002D00083E00E94490164E083E00E94490162E0FA
:1002E00082E00E94510167E082E00E94510163E0D8
:1002F00083E00E94510164E083E00E9451010E946A
:100300003C0180916000813089F462E082E00E94CB
:100310004D0167E082E00E94510163E083E00E94AA
:10032000510164E083E00E945101EBCF823081F4FF
:1003300062E00E944D0167E082E00E944D0163E0AF
:1003400083E00E94510164E083E00E945101D9CF13
:10035000833089F462E082E00E944D0167E082E030
:100360000E944D0163E083E00E944D0164E083E060
:100370000E945101C6CF843089F462E082E00E947D
:100380004D0167E082E00E944D0163E083E00E943E
:100390004D0164E083E00E944D01B3CF853089F4C4
:1003A00062E082E00E94510167E082E00E944D011C
:1003B00063E083E00E944D0164E083E00E944D0110
:1003C000A0CF863089F462E082E00E94510167E0AC
:1003D00082E00E94510163E083E00E944D0164E0ED
:1003E00083E00E944D018DCF873089F462E082E086
:1003F0000E94510167E082E00E94510163E083E0C6
:100400000E94510164E083E00E944D017ACF883060
:1004100009F077CF62E082E00E94510167E082E05C
:100420000E94510163E083E00E94510164E083E097
:100430000E9451011092600064CF1F920F920FB67C
:100440000F9211248F93809160008F5F80936000E2
:100450008F910F900FBE0F901F901895F894FFCFBB
:00000001FF
